:020000040000FA
:100000000C945D000C9485000C9485000C94850084
:100010000C9485000C9485000C9485000C9485004C
:100020000C9485000C9485000C9485000C9485003C
:100030000C9485000C9485000C9485000C9485002C
:100040000C9478020C9485000C94E8020C94C20283
:100050000C9485000C9485000C9485000C9485000C
:100060000C9485000C9485000000000024002700FB
:100070002A0000000000250028002B0004040404CE
:100080000404040402020202020203030303030342
:10009000010204081020408001020408102001021F
:1000A00004081020000000080002010000030407FB
:1000B0000000000000000000280411241FBECFEF44
:1000C000D8E0DEBFCDBF11E0A0E0B1E0EAEBF8E0A0
:1000D00002C005900D92A632B107D9F721E0A6E241
:1000E000B1E001C01D92AC3CB207E1F710E0CDE5F4
:1000F000D0E004C02197FE010E945504CC35D10701
:10010000C9F70E941A030C945B040C940000AF9290
:10011000BF92CF92DF92EF92FF920F931F93CF93F4
:10012000DF936C017B018B01040F151FEB015E0156
:10013000AE18BF08C017D10759F06991D601ED91EB
:10014000FC910190F081E02DC6010995892B79F78A
:10015000C501DF91CF911F910F91FF90EF90DF903C
:10016000CF90BF90AF900895FC01538D448D252F03
:1001700030E0842F90E0821B930B541710F0CF9641
:10018000089501970895FC01918D828D981761F073
:10019000A28DAE0FBF2FB11D5D968C91928D9F5F8A
:1001A0009F73928F90E008958FEF9FEF0895FC0169
:1001B000918D828D981731F0828DE80FF11D858D1C
:1001C00090E008958FEF9FEF0895FC01918D228DAF
:1001D000892F90E0805C9F4F821B91098F73992734
:1001E00008958FE291E00E94E50021E0892B09F457
:1001F00020E0822F089580E090E0892B29F00E9472
:10020000F10081110C9400000895FC01A48DA80F49
:10021000B92FB11DA35ABF4F2C91848D90E0019648
:100220008F739927848FA689B7892C93A089B18968
:100230008C91837080648C93938D848D981306C009
:100240000288F389E02D80818F7D80830895EF926D
:10025000FF920F931F93CF93DF93EC0181E0888F80
:100260009B8D8C8D98131AC0E889F989808185FF50
:1002700015C09FB7F894EE89FF896083E889F989F2
:1002800080818370806480839FBF81E090E0DF91F4
:10029000CF911F910F91FF90EF900895F62E0B8D47
:1002A00010E00F5F1F4F0F731127E02E8C8D8E1102
:1002B0000CC00FB607FCFACFE889F989808185FF69
:1002C000F5CFCE010E940501F1CFEB8DEC0FFD2F94
:1002D000F11DE35AFF4FF0829FB7F8940B8FEA8924
:1002E000FB8980818062CFCFCF93DF93EC01888D33
:1002F0008823B9F0AA89BB89E889F9898C9185FDA1
:1003000003C0808186FD0DC00FB607FCF7CF8C912E
:1003100085FFF2CF808185FFEDCFCE010E940501E0
:10032000E9CFDF91CF91089590E0FC01EC55FF4FAC
:100330002491FC01E057FF4F3491FC01E458FF4F3A
:10034000E491EE23C9F0222339F0233001F1A8F41F
:10035000213019F1223029F1F0E0EE0FFF1FEE58A5
:10036000FF4FA591B4918FB7F894EC91611126C01D
:1003700030953E233C938FBF08952730A9F0283055
:10038000C9F0243049F7809180008F7D03C08091AF
:1003900080008F7780938000DFCF84B58F7784BD16
:1003A000DBCF84B58F7DFBCF8091B0008F778093BA
:1003B000B000D2CF8091B0008F7DF9CF3E2BDACF45
:1003C000CF93DF9390E0FC01E057FF4F24918458D6
:1003D0009F4FFC0184918823D1F090E0880F991FF2
:1003E000FC01E859FF4FA591B491FC01EE58FF4F75
:1003F000C591D49161110EC09FB7F8948C91E22FF2
:10040000E0958E238C932881E223E8839FBFDF91C0
:10041000CF9108958FB7F894EC91E22BEC938FBFB6
:10042000F6CFE82FF0E0EC55FF4FE491E33029F1EF
:1004300050F4E130C1F0E230D9F060387105BCF51C
:1004400060E00C949401E73011F1E83041F1E430C0
:10045000A1F78091800080628093800070938B0070
:1004600060938A00089584B5806884BD67BD08954F
:1004700084B5806284BD68BD0895809180008068E5
:100480008093800070938900609388000895809124
:10049000B00080688093B0006093B30008958091AD
:1004A000B00080628093B0006093B400089561E072
:1004B000C8CF8E50806480937C0080917A008064E5
:1004C00080937A0080917A0086FDFCCF809178003D
:1004D000909179000895FC0101900020E9F731978F
:1004E000AF01481B590BBC018FE291E00C948700CF
:1004F0001F920F920FB60F9211242F933F938F9359
:100500009F93AF93BF9380912B0190912C01A09169
:100510002D01B0912E0130912A0123E0230F2D37B8
:1005200058F50196A11DB11D20932A0180932B013E
:1005300090932C01A0932D01B0932E018091260160
:1005400090912701A0912801B09129010196A11D48
:10055000B11D8093260190932701A0932801B093A9
:100560002901BF91AF919F918F913F912F910F9052
:100570000FBE0F901F90189526E8230F0296A11D1D
:10058000B11DD2CF1F920F920FB60F9211242F934D
:100590003F934F935F936F937F938F939F93AF930B
:1005A000BF93EF93FF938FE291E00E940501FF91CB
:1005B000EF91BF91AF919F918F917F916F915F91DB
:1005C0004F913F912F910F900FBE0F901F90189554
:1005D0001F920F920FB60F9211242F938F939F9318
:1005E000EF93FF93E0913F01F09140018081E09112
:1005F0004501F091460182FD1BC090818091480128
:100600008F5F8F7320914901821741F0E09148017B
:10061000F0E0E15DFE4F958F80934801FF91EF91EF
:100620009F918F912F910F900FBE0F901F90189553
:100630008081F4CF789484B5826084BD84B5816074
:1006400084BD85B5826085BD85B5816085BD80919D
:100650006E00816080936E00109281008091810015
:10066000826080938100809181008160809381000D
:10067000809180008160809380008091B1008460CF
:100680008093B1008091B00081608093B000809130
:100690007A00846080937A0080917A0082608093EF
:1006A0007A0080917A00816080937A0080917A004C
:1006B000806880937A001092C100E0913F01F09130
:1006C000400182E08083E0913B01F0913C01108287
:1006D000E0913D01F0913E018FEC80831092470143
:1006E000E0914301F091440186E08083E091410173
:1006F000F0914201808180618083E0914101F0911D
:100700004201808188608083E0914101F091420143
:10071000808180688083E0914101F0914201808175
:100720008F7D808361E08BE00E94E00161E08AE0E0
:100730000E94E00161E089E00E94E00161E086E062
:100740000E94E00161E085E00E94E00161E084E058
:100750000E94E00160E083E10E94E00160E082E14C
:100760000E94E00160E081E10E94E00160E080E140
:100770000E94E00100E010E080E10E94590281E166
:100780000E945902EC0182E10E94590283E10E9419
:100790005902C53F81E0D807ACF161E08BE00E94CF
:1007A000E0016AEF70E08BE00E94110261E086E0F8
:1007B0000E94E0016AEF70E086E00E94110261E0B1
:1007C0008AE00E94940160E089E00E94940161E067
:1007D00085E00E94940160E084E00E94940182E13F
:1007E00091E00E946B028CE191E00E946B02011586
:1007F000110511F20E94F100882309F4BDCF0E9477
:100800000000BACFC43FD14091F361E08BE00E9479
:10081000E00160E08BE00E94940161E086E00E94CC
:10082000E00160E086E00E94940161E08AE00E94BD
:10083000940160E089E00E94940161E085E00E94FB
:10084000940160E084E00E9494018FE191E0CDCFBB
:10085000EFE2F1E01382128288EE93E0A0E0B0E0D4
:1008600084839583A683B78384E091E0918380831A
:1008700085EC90E09587848784EC90E09787868765
:1008800080EC90E0918B808B81EC90E0938B828B5D
:1008900082EC90E0958B848B86EC90E0978B868B36
:1008A000118E128E138E148E0895EE0FFF1F059079
:1008B000F491E02D0994F894FFCF00000000270187
:1008C0008700B4007401E500C300D700626C616367
:1008D0006B6B6B6B6B000D0A0077686974650000C9
:107E0000112484B714BE81FFF0D085E080938100F7
:107E100082E08093C00088E18093C10086E0809377
:107E2000C20080E18093C4008EE0C9D0259A86E02C
:107E300020E33CEF91E0309385002093840096BBD3
:107E4000B09BFECF1D9AA8958150A9F7CC24DD24C4
:107E500088248394B5E0AB2EA1E19A2EF3E0BF2EE7
:107E6000A2D0813461F49FD0082FAFD0023811F036
:107E7000013811F484E001C083E08DD089C08234E0
:107E800011F484E103C0853419F485E0A6D080C0E4
:107E9000853579F488D0E82EFF2485D0082F10E0AE
:107EA000102F00270E291F29000F111F8ED06801E7
:107EB0006FC0863521F484E090D080E0DECF843638
:107EC00009F040C070D06FD0082F6DD080E0C81688
:107ED00080E7D80618F4F601B7BEE895C0E0D1E017
:107EE00062D089930C17E1F7F0E0CF16F0E7DF06D8
:107EF00018F0F601B7BEE89568D007B600FCFDCFD4
:107F0000A601A0E0B1E02C9130E011968C91119780
:107F100090E0982F8827822B932B1296FA010C0160
:107F200087BEE89511244E5F5F4FF1E0A038BF0790
:107F300051F7F601A7BEE89507B600FCFDCF97BE46
:107F4000E89526C08437B1F42ED02DD0F82E2BD052
:107F50003CD0F601EF2C8F010F5F1F4F84911BD097
:107F6000EA94F801C1F70894C11CD11CFA94CF0C13
:107F7000D11C0EC0853739F428D08EE10CD085E9AC
:107F80000AD08FE07ACF813511F488E018D01DD067
:107F900080E101D065CF982F8091C00085FFFCCF94
:107FA0009093C60008958091C00087FFFCCF809118
:107FB000C00084FD01C0A8958091C6000895E0E648
:107FC000F0E098E1908380830895EDDF803219F02E
:107FD00088E0F5DFFFCF84E1DECF1F93182FE3DFCA
:107FE0001150E9F7F2DF1F91089580E0E8DFEE27F6
:047FF000FF270994CA
:027FFE00040479
:00000001FF
